:100000000C94D6000C94FE000C94FE000C94FE00A0
:100010000C94FE000C94FE000C94FE000C94FE0068
:100020000C94FE000C94FE000C94FE000C94FE0058
:100030000C94FE000C94FE000C94FE000C94FE0048
:100040000C94A3040C94FE000C9413050C94ED0482
:100050000C94FE000C94FE000C94FE000C94FE0028
:100060000C94FE000C94FE00202068656C7000204B
:1000700020737461747573002020646563205B7065
:10008000706D5D002020696E63205B70706D5D0097
:100090002020736574203C3430302E2E35303030C3
:1000A0003E00436F6D6D616E64733A0044392050B9
:1000B000574D206D617073203430302E2E35303026
:1000C000302070706D0041697247756172642073F1
:1000D000656E736F72206167656E7420726561640E
:1000E00079004147454E54204F4B2070706D3D00C4
:1000F0004552524F52207573653A20736574203C07
:1001000070706D3E2C20696E63205B70706D5D2C8D
:1001100020646563205B70706D5D2C207374617466
:1001200075732C2068656C7000206F757470757421
:100130003D44395F50574D004147454E5420707043
:100140006D3D004552524F5220636F6D6D616E647C
:1001500020746F6F206C6F6E670000000000240039
:1001600027002A0000000000250028002B000404BE
:10017000040404040404020202020202030303034F
:10018000030301020408102040800102040810202B
:100190000102040810200000000800020100000312
:1001A000040700000000000000008C0711241FBE9F
:1001B000CFEFD8E0DEBFCDBF11E0A0E0B1E0E8E1D5
:1001C000F7E102C005900D92A633B107D9F722E0FE
:1001D000A6E3B1E001C01D92A331B207E1F710E040
:1001E000C6EDD0E004C02197FE010E947E09C53D06
:1001F000D107C9F70E9445050C948A0B0C940000A6
:10020000EFE9F1E02491EBE8F1E09491E7E7F1E028
:10021000E491EE23C9F0222339F0233001F1A8F450
:10022000213019F1223029F1F0E0EE0FFF1FEC59D7
:10023000FE4FA591B4912FB7F894EC91811126C08F
:1002400090959E239C932FBF08952730A9F02830C6
:10025000C9F0243049F7209180002F7D03C0209100
:1002600080002F7720938000DFCF24B52F7724BD27
:10027000DBCF24B52F7DFBCF2091B0002F772093CB
:10028000B000D2CF2091B0002F7DF9CF9E2BDACFD6
:10029000EBE8F1E02491E7E7F1E08491882399F01D
:1002A00090E0880F991FFC01E65AFE4FA591B4918A
:1002B000FC01EC59FE4F859194918FB7F894EC9125
:1002C000E22BEC938FBF0895AF92BF92CF92DF9253
:1002D000EF92FF920F931F93CF93DF936C017B01FB
:1002E0008B01040F151FEB015E01AE18BF08C0178C
:1002F000D10759F06991D601ED91FC910190F081FF
:10030000E02DC6010995892B79F7C501DF91CF91C1
:100310001F910F91FF90EF90DF90CF90BF90AF9023
:100320000895FC01538D448D252F30E0842F90E0FB
:10033000821B930B541710F0CF96089501970895E0
:10034000FC01918D828D981761F0A28DAE0FBF2FA9
:10035000B11D5D968C91928D9F5F9F73928F90E0FF
:1003600008958FEF9FEF0895FC01918D828D98176E
:1003700031F0828DE80FF11D858D90E008958FEFAB
:100380009FEF0895FC01918D228D892F90E0805C74
:100390009F4F821B91098F739927089580E791E001
:1003A0000E94C20121E0892B09F420E0822F0895E8
:1003B00080E090E0892B29F00E94CE0181110C94FD
:1003C00000000895FC01A48DA80FB92FB11DA35AF8
:1003D000BF4F2C91848D90E001968F739927848F65
:1003E000A689B7892C93A089B1898C918370806488
:1003F0008C93938D848D981306C00288F389E02D29
:1004000080818F7D80830895EF92FF920F931F93D9
:10041000CF93DF93EC0181E0888F9B8D8C8D9813B7
:100420001AC0E889F989808185FF15C09FB7F894C3
:10043000EE89FF896083E889F9898081837080640F
:1004400080839FBF81E090E0DF91CF911F910F915A
:10045000FF90EF900895F62E0B8D10E00F5F1F4F69
:100460000F731127E02E8C8D8E110CC00FB607FC78
:10047000FACFE889F989808185FFF5CFCE010E9406
:10048000E201F1CFEB8DEC0FFD2FF11DE35AFF4F91
:10049000F0829FB7F8940B8FEA89FB898081806294
:1004A000CFCF0F931F93CF93DF938C01D0E0C0E0A9
:1004B000F801EC0FFD1F6491662341F080E791E0A5
:1004C0000E940402892B11F02196F2CFCE01DF9118
:1004D000CF911F910F910895CF93DF93EC01888DF9
:1004E0008823B9F0AA89BB89E889F9898C9185FDAF
:1004F00003C0808186FD0DC00FB607FCF7CF8C913D
:1005000085FFF2CF808185FFEDCFCE010E94E20111
:10051000E9CFDF91CF910895CF92DF92EF92FF92D2
:10052000CF93DF932091000130910101032E000C45
:10053000440B550B2059314041095109AFEFB0E050
:100540000E942D0928EF31E140E050E00E940E09A1
:1005500057FF0BC00E94480180E0DF91CF91FF90D0
:10056000EF90DF90CF900C94000169017A018FEF3A
:10057000C816D104E104F10429F024F0C12CD12CD7
:100580007601CA94E6010E944801209729F3CF3FE3
:10059000D10511F481E0E1CFEFE9F1E0E491E3303E
:1005A00049F140F4E130B1F0E230F9F0C038D10562
:1005B0008CF7D2CFE73041F1E83071F1E430B1F798
:1005C00080918000806280938000D0928B00C092E6
:1005D0008A0004C084B5806884BDC7BCDF91CF9118
:1005E000FF90EF90DF90CF90089584B5806284BD36
:1005F000C8BCF4CF80918000806880938000D09246
:100600008900C0928800EACF8091B0008068809312
:10061000B000C092B300E2CF8091B00080628093BE
:10062000B000C092B400DACF8F929F92AF92BF9287
:100630000F931F93CF93DF93CDB7DEB7A1970FB67C
:10064000F894DEBF0FBECDBF19A2423008F44AE0D5
:100650008E010F5D1F4F842E912CB12CA12CA50172
:1006600094010E94EC08E62FB901CA01EA3044F572
:10067000E05DD801EE938D01232B242B252B79F7F8
:1006800090E080E0109769F0FD0101900020E9F70B
:100690003197AF014A1B5B0BBD0180E791E00E94DF
:1006A0006401A1960FB6F894DEBF0FBECDBFDF91F7
:1006B000CF911F910F91BF90AF909F908F90089511
:1006C000E95CD7CFCF92DF92EF92FF92CF93DF9387
:1006D0006B017C016DE280E791E00E940402EC0175
:1006E00066277727CB016C197D098E099F094AE09F
:1006F0000E9414038C0F9D1FDF91CF91FF90EF900C
:10070000DF90CF90089542E050E06AE171E080E729
:1007100091E00C946401CF93DF930E945102EC01AD
:100720000E9483038C0F9D1FDF91CF91089582EA71
:1007300090E00E948B0380E990E00E948B0384E8A4
:1007400090E00E948B0388E790E00E948B038FE685
:1007500090E00E948B0388E690E00C948B03FC01F0
:1007600080819181009711F00C94200A0895FC017A
:1007700024813581232B39F421E0FB0180818823FA
:1007800049F020E007C0808191810E947A0B21E02E
:10079000892BB9F7822F0895EF92FF920F931F9341
:1007A000CF93DF93EC017B018A01888199810097C7
:1007B00029F02A813B812417350788F4B8016F5F3F
:1007C0007F4F0E94A90A009791F0998388831B8329
:1007D0000A832C813D81232B11F4FC0110821D839F
:1007E0000C83B701888199810E94830B0CC088819A
:1007F0009981009711F00E94200A198218821D82A7
:100800001C821B821A82CE01DF91CF911F910F9122
:10081000FF90EF900895AF92BF92CF92DF92EF9248
:10082000FF920F931F93CF93DF93EC016B015A015B
:1008300079012417350720F48B2D5901E42EF82E69
:10084000198218821B821A821D821C8250E040E0AD
:100850006CE171E0CE010E94CC03D60114960D919B
:100860001C91A016B10628F5E016F10608F48701E0
:10087000D601ED91FC911197E00FF11FF0801082ED
:100880006D917C916A0D7B1D61157105F1F0FB0185
:1008900001900020E9F73197AF01461B570BCE01BD
:1008A0000E94CC03F60180819181080F191FD801A5
:1008B000FC92CE01DF91CF911F910F91FF90EF90AD
:1008C000DF90CF90BF90AF90089588819981009775
:1008D00011F00E94200A198218821D821C821B823C
:1008E0001A82E0CFEF92FF920F931F93CF93DF9383
:1008F00000D0CDB7DEB78C017B011A8219824AE0A5
:1009000050E0BE016F5F7F4FDC018D919C910E9492
:10091000B907F7016083718382839383E981FA8148
:10092000D8018D919C918E179F0719F081E09081DD
:10093000911180E00F900F90DF91CF911F910F9157
:10094000FF90EF9008951F920F920FB60F9211240F
:100950002F933F938F939F93AF93BF9380916C019D
:1009600090916D01A0916E01B0916F0130916B017A
:1009700023E0230F2D3758F50196A11DB11D2093BB
:100980006B0180936C0190936D01A0936E01B09305
:100990006F018091670190916801A0916901B09108
:1009A0006A010196A11DB11D8093670190936801B2
:1009B000A0936901B0936A01BF91AF919F918F910C
:1009C0003F912F910F900FBE0F901F90189526E822
:1009D000230F0296A11DB11DD2CF1F920F920FB609
:1009E0000F9211242F933F934F935F936F937F93B5
:1009F0008F939F93AF93BF93EF93FF9380E791E023
:100A00000E94E201FF91EF91BF91AF919F918F9171
:100A10007F916F915F914F913F912F910F900FBEFA
:100A20000F901F9018951F920F920FB60F921124DE
:100A30002F938F939F93EF93FF93E0918001F09119
:100A400081018081E0918601F091870182FD1BC0C8
:100A50009081809189018F5F8F7320918A01821725
:100A600041F0E0918901F0E0E059FE4F958F8093CD
:100A70008901FF91EF919F918F912F910F900FBE60
:100A80000F901F9018958081F4CFCF93DF93CDB74F
:100A9000DEB766970FB6F894DEBF0FBECDBF789471
:100AA00084B5826084BD84B5816084BD85B5826073
:100AB00085BD85B5816085BD80916E008160809324
:100AC0006E0010928100809181008260809381008D
:100AD000809181008160809381008091800081609D
:100AE000809380008091B10084608093B1008091F8
:100AF000B00081608093B00080917A008460809320
:100B00007A0080917A00826080937A0080917A00E6
:100B1000816080937A0080917A00806880937A0067
:100B20001092C100E0918001F091810182E0808308
:100B3000E0917C01F0917D011082E0917E01F091C5
:100B40007F0180E1808310928801E0918401F0911F
:100B5000850186E08083E0918201F09183018081AC
:100B600080618083E0918201F091830180818860BF
:100B70008083E0918201F09183018081806880838D
:100B8000E0918201F091830180818F7D80830E94BA
:100B900048010E948C0286EC90E00E948B038CEA54
:100BA00090E00E948B030E94970386E3882E81E0E9
:100BB000982E94E6492E512C612C712C80E791E0FF
:100BC0000E94C201892B09F49AC180E791E00E943A
:100BD000A001E09166018A3019F08D3009F07DC1E5
:100BE000EE2361F3F0E0EA5CFE4F10821E861D8664
:100BF000188A1F861A8A198AF40101900020E9F7E1
:100C0000AF014753514066E371E0CE010D960E945B
:100C1000CC03CD84DE84C114D10431F009891A8952
:100C200076010115110599F46DE171E0CE010D9683
:100C30000E94B703882309F440C00E949703CE01A5
:100C40000D960E94AF0310926601B8CF750157014F
:100C5000FFEFAF1ABF0AF7018081082E000C990B35
:100C60000E94D008892B91F7015011090C0D1D1D10
:100C7000F8018081082E000C990B0E94D008892B66
:100C800031F00E151F0518F001501109F1CFA80120
:100C90004F5F5F4F4E195F095A8B498BCE14DF04AB
:100CA00020F4B701C6010E94660BED85FE85898997
:100CB0009A89E80FF91F1082B7CF62E271E0CE0186
:100CC0000D960E94B7038823C9F088E391E00E9443
:100CD00051026091000170910101072E000C880BF8
:100CE000990B97FF07C00E94620389E291E00E947E
:100CF0008B03A5CF4AE00E941403F7CFC988DA8896
:100D0000ED84FE84C114D10461F060E270E0C7019B
:100D10000E946F0B009729F08C010E191F0917FF15
:100D20001EC018861F821A8619861C861B86E1142F
:100D3000F10431F0A601B701CE0107960E94CC0361
:100D40001A8219821C821B821E821D8250E040E0A2
:100D50006CE171E0CE0101960E94CC0316C09801AF
:100D600050E040E0BE01635F7F4FCE0107960E94D6
:100D70000B0429893A89A8014F5F5F4FBE01635F69
:100D80007F4FCE0101960E940B041B8A1C8A1D8A8C
:100D90001E8A69E271E0CE0107960E94B70388239C
:100DA000D9F08D819E81892BB9F0BE016D5E7F4F98
:100DB000CE0101960E947204882371F08B899C8970
:100DC000AD89BE898039F1E09F07A105B1050CF01E
:100DD00042C080E991E049C06DE271E0CE01079622
:100DE0000E94B703811109C061E371E0CE0107964B
:100DF0000E94B703882309F45AC08D819E81892BF4
:100E000009F04CC08D819E81892B09F45DC06DE293
:100E100071E0CE0107960E94B7034B895C896D890A
:100E20007E89811107C070956095509541955F4FFF
:100E30006F4F7F4F8091000190910101840F951FAA
:100E40008938E3E19E0714F088E893E18039F1E006
:100E50009F075CF4BECF893823E19207A105B10555
:100E600024F088E893E1A0E0B0E090930101809342
:100E700000010E948C0282EE90E00E94510260917B
:100E8000000170910101072E000C880B990B97FF50
:100E900020C00E9462030E9483030DC0BE016D5EEC
:100EA0007F4FCE0101960E9472048111ABCF80EF7B
:100EB00090E00E948B03CE0101960E94AF03CE0109
:100EC00007960E94AF03BBCE4B8A5C8A6D8A7E8AEE
:100ED0009ECF4AE00E941403DECFEF3248F491E047
:100EE0009E0F90936601F0E0EA5CFE4F808366CE31
:100EF0001092660183E491E00E948B035FCE80E054
:100F000090E0892B09F45ACE0E94CE01882309F47F
:100F100055CE0E94000052CEE0E7F1E0138212822B
:100F200088EE93E0A0E0B0E084839583A683B78346
:100F30008CE091E09183808385EC90E095878487B5
:100F400084EC90E09787868780EC90E0918B808B93
:100F500081EC90E0938B828B82EC90E0958B848B7C
:100F600086EC90E0978B868B118E128E138E148EEA
:100F70000895B0E0A0E0EFEBF7E00C9439095C01D4
:100F80006B017A016115710519F0FB019183808372
:100F9000E114F10451F0C7010297839730F040E06B
:100FA00030E020E090E072C05E01E5012196F5019D
:100FB0001081812F90E00E94D008892BA9F71D3263
:100FC00001F52196F501118101E0E114F10409F424
:100FD000DAC0F0E1EF16F10409F082C0103359F4E1
:100FE00088818F7D883509F076C01981229602604C
:100FF000F0E1EF2EF12C812C912CA12C88E0B82E61
:101000008CC01B3221F4E5012296F501118100E02C
:10101000DCCFEAE0EE16F10409F4BBC0F0E1EF1614
:10102000F10409F06DC0E7CF78E0E72EF12C812CB8
:10103000912CA12C60E1B62E70C03FE9310F3A31FE
:1010400028F439EA332E80C021E09AC0302F317065
:10105000C114D10431F0222309F12197F601D18383
:10106000C08327FF21C060E070E080E090E831118C
:1010700004C06FEF7FEF8FEF9FE722E230E0309305
:101080000E0220930D02462F372F282F642F732F27
:10109000822FCDB7DEB7E1E10C94550901FF04C002
:1010A0002297F601D183C083332341F09095809538
:1010B000709561957F4F8F4F9F4FE5CF97FFE3CF9F
:1010C00082E290E090930E0280930D026FEF7FEF2B
:1010D0008FEF9FE7D8CF10E3E114F10409F4A4CF18
:1010E00028E0E216F10409F4A2CF0CF092CF812C93
:1010F000912CA12CE0E4BE2E82E0E816F10469F008
:1011000060E070E080E090E897010F2C000C440B49
:10111000550B0E94EC0849015A0120E060E070E0A4
:10112000CB0127010F2C000C66087708FE0150ED5B
:10113000352E310E39E0331540F43FEB310F3A31A3
:1011400008F07BCF49EC342E310E3E141F040CF016
:101150007DCF27FD15C086169706A806B90678F03C
:10116000A30192010E94DC08630D711D811D911D78
:1011700061307105810520E8920708F465CF2FEFF3
:1011800021961081D3CF103309F42ACF2AE0E22E22
:10119000F12C9CEC892E982CA82C9CE0B92EBDCF6C
:1011A00091110C94D908803219F089508550C8F7F4
:1011B0000895992788270895DB018F939F930E94B4
:1011C0002D09BF91AF91A29F800D911DA39F900DFE
:1011D000B29F900D11240895A1E21A2EAA1BBB1BE9
:1011E000FD010DC0AA1FBB1FEE1FFF1FA217B307F3
:1011F000E407F50720F0A21BB30BE40BF50B661F09
:10120000771F881F991F1A9469F7609570958095CC
:1012100090959B01AC01BD01CF010895052E97FB70
:101220001EF400940E94250957FD07D00E94EC0887
:1012300007FC03D04EF40C94250950954095309549
:1012400021953F4F4F4F5F4F089590958095709532
:1012500061957F4F8F4F9F4F08950E946F09A59F03
:10126000900DB49F900DA49F800D911D11240895A1
:101270002F923F924F925F926F927F928F929F92A6
:10128000AF92BF92CF92DF92EF92FF920F931F9394
:10129000CF93DF93CDB7DEB7CA1BDB0B0FB6F89445
:1012A000DEBF0FBECDBF09942A88398848885F8485
:1012B0006E847D848C849B84AA84B984C884DF80F6
:1012C000EE80FD800C811B81AA81B981CE0FD11DDA
:1012D0000FB6F894DEBF0FBECDBFED010895A29FFB
:1012E000B001B39FC001A39F700D811D1124911DFA
:1012F000B29F700D811D1124911D0895EE0FFF1FE7
:101300000590F491E02D09940F931F93CF93DF93F1
:101310008230910510F482E090E0E0911102F091AA
:10132000120230E020E0B0E0A0E0309799F42115FF
:10133000310509F44AC0281B390B24303105D8F592
:101340008A819B816115710589F1FB0193838283F9
:10135000FE0111C040815181028113814817590754
:10136000E0F04817590799F4109761F012960C9322
:10137000129713961C933296CF01DF91CF911F9154
:101380000F9108950093110210931202F4CF2115CA
:10139000310551F04217530738F0A901DB019A01DA
:1013A000BD01DF01F801C1CFEF01F9CF9093120227
:1013B00080931102CDCFFE01E20FF31F8193919331
:1013C0002250310939832883D7CF20910F023091E1
:1013D0001002232B41F42091040130910501309338
:1013E000100220930F022091020130910301211578
:1013F000310541F42DB73EB74091060150910701E8
:10140000241B350BE0910F02F0911002E217F30755
:10141000A0F42E1B3F0B2817390778F0AC014E5F64
:101420005F4F2417350748F04E0F5F1F509310028F
:1014300040930F02819391939FCFF0E0E0E09CCF27
:10144000CF93DF930097E9F0FC0132971382128269
:10145000A0911102B0911202ED0130E020E010974E
:10146000A1F420813181820F931F20910F023091CE
:1014700010022817390709F061C0F0931002E093B9
:101480000F02DF91CF910895EA01CE17DF07E8F54B
:101490004A815B819E0141155105B1F7E901FB834A
:1014A000EA8349915991C40FD51FEC17FD0761F4E8
:1014B000808191810296840F951FE9019983888329
:1014C000828193819B838A83F0E0E0E012968D9184
:1014D0009C9113970097B9F52D913C911197CD01EF
:1014E0000296820F931F20910F023091100228174D
:1014F000390739F6309751F5109212021092110205
:10150000B0931002A0930F02BCCFD383C28340815B
:101510005181840F951FC817D90761F44E5F5F4F43
:1015200088819981480F591F518340838A819B810B
:10153000938382832115310509F0B0CFF093120215
:10154000E09311029ECFFD01DC01C0CF1382128215
:10155000D7CFB0E0A0E0EFEAFAE00C943A098C01B2
:10156000009751F4CB010E9484098C01C801CDB7CA
:10157000DEB7E0E10C945609FC01E60FF71F9C0171
:1015800022503109E217F30708F49DC0D901CD912B
:10159000DC911197C617D70798F0C530D10530F305
:1015A000CE0104978617970708F3C61BD70B22971F
:1015B000C193D1936D937C93CF010E94200AD6CF23
:1015C0005B01AC1ABD0A4C018C0E9D1EA09111024C
:1015D000B0911202512C412CF12CE12C109731F5D5
:1015E00080910F02909110028815990509F05CC056
:1015F0004616570608F058C08091020190910301E9
:10160000009741F48DB79EB74091060150910701B4
:10161000841B950BE817F90708F055C0F0931002EA
:10162000E0930F02F90171836083A0CF8D919C91AB
:10163000119712966C90129713967C901397A81599
:10164000B90559F56C0142E0C40ED11CCA14DB0483
:1016500020F1AC014A195B09DA011296159780F066
:101660006282738251834083D9016D937C93E1142C
:10167000F10471F0D7011396FC93EE93129776CF95
:1016800022968C0F9D1FF90191838083F301EFCF88
:10169000F0931202E093110269CF4816590608F43C
:1016A0002C017D01D3019ACFCB010E9484097C01DA
:1016B000009749F0AE01B8010E94660BC8010E9474
:1016C000200A870153CF10E000E050CFFB01DC017E
:1016D00002C001900D9241505040D8F70895FC018E
:1016E0008191861721F08823D9F79927089531979A
:1016F000CF010895FB01DC018D910190801901104B
:10170000D9F3990B0895FB01DC0101900D920020A3
:08171000E1F70895F894FFCF02
:101718009001000013028000000000000402640130
:1017280091016C02C201A001B4010D0A0068656C48
:1017380070007374617475730073657400696E6307
:061748000064656300006F
:00000001FF
